{
  "contractName": "EtherStore",
  "abi": [
    {
      "inputs": [],
      "name": "WITHDRAWAL_LIMIT",
      "outputs": [
        {
          "internalType": "uint256",
          "name": "",
          "type": "uint256"
        }
      ],
      "stateMutability": "view",
      "type": "function"
    },
    {
      "inputs": [
        {
          "internalType": "address",
          "name": "",
          "type": "address"
        }
      ],
      "name": "balances",
      "outputs": [
        {
          "internalType": "uint256",
          "name": "",
          "type": "uint256"
        }
      ],
      "stateMutability": "view",
      "type": "function"
    },
    {
      "inputs": [
        {
          "internalType": "address",
          "name": "",
          "type": "address"
        }
      ],
      "name": "lastWithdrawTime",
      "outputs": [
        {
          "internalType": "uint256",
          "name": "",
          "type": "uint256"
        }
      ],
      "stateMutability": "view",
      "type": "function"
    },
    {
      "inputs": [],
      "name": "deposit",
      "outputs": [],
      "stateMutability": "payable",
      "type": "function"
    },
    {
      "inputs": [
        {
          "internalType": "uint256",
          "name": "_amount",
          "type": "uint256"
        }
      ],
      "name": "withdraw",
      "outputs": [],
      "stateMutability": "nonpayable",
      "type": "function"
    },
    {
      "inputs": [],
      "name": "getBalance",
      "outputs": [
        {
          "internalType": "uint256",
          "name": "",
          "type": "uint256"
        }
      ],
      "stateMutability": "view",
      "type": "function"
    }
  ],
  "bytecode": "0x608060405234801561001057600080fd5b506104a9806100206000396000f3fe6080604052600436106100555760003560e01c80631031ec311461005a57806312065fe0146100bf57806327e235e3146100ea5780632e1a7d4d1461014f57806382ee0d1d1461018a578063d0e30db0146101b5575b600080fd5b34801561006657600080fd5b506100a96004803603602081101561007d57600080fd5b81019080803573ffffffffffffffffffffffffffffffffffffffff1690602001909291905050506101bf565b6040518082815260200191505060405180910390f35b3480156100cb57600080fd5b506100d46101d7565b6040518082815260200191505060405180910390f35b3480156100f657600080fd5b506101396004803603602081101561010d57600080fd5b81019080803573ffffffffffffffffffffffffffffffffffffffff1690602001909291905050506101df565b6040518082815260200191505060405180910390f35b34801561015b57600080fd5b506101886004803603602081101561017257600080fd5b81019080803590602001909291905050506101f7565b005b34801561019657600080fd5b5061019f610418565b6040518082815260200191505060405180910390f35b6101bd610424565b005b60006020528060005260406000206000915090505481565b600047905090565b60016020528060005260406000206000915090505481565b80600160003373ffffffffffffffffffffffffffffffffffffffff1673ffffffffffffffffffffffffffffffffffffffff16815260200190815260200160002054101561024357600080fd5b670de0b6b3a764000081111561025857600080fd5b62093a806000803373ffffffffffffffffffffffffffffffffffffffff1673ffffffffffffffffffffffffffffffffffffffff16815260200190815260200160002054014210156102a857600080fd5b60003373ffffffffffffffffffffffffffffffffffffffff168260405180600001905060006040518083038185875af1925050503d8060008114610308576040519150601f19603f3d011682016040523d82523d6000602084013e61030d565b606091505b5050905080610384576040517f08c379a00000000000000000000000000000000000000000000000000000000081526004018080602001828103825260148152602001807f4661696c656420746f2073656e6420457468657200000000000000000000000081525060200191505060405180910390fd5b81600160003373ffffffffffffffffffffffffffffffffffffffff1673ffffffffffffffffffffffffffffffffffffffff16815260200190815260200160002060008282540392505081905550426000803373ffffffffffffffffffffffffffffffffffffffff1673ffffffffffffffffffffffffffffffffffffffff168152602001908152602001600020819055505050565b670de0b6b3a764000081565b34600160003373ffffffffffffffffffffffffffffffffffffffff1673ffffffffffffffffffffffffffffffffffffffff1681526020019081526020016000206000828254019250508190555056fea2646970667358221220846c8b1470dc221eb9c6d923aa535bdfffc1159e07175d5e39c94b7290e35d1964736f6c63430007060033",
  "immutableReferences": {},
  "source": "// SPDX-License-Identifier: MIT\r\npragma solidity ^0.7.3;\r\n\r\ncontract EtherStore {\r\n    // Withdrawal limit = 1 ether / week\r\n    uint public constant WITHDRAWAL_LIMIT = 1 ether;\r\n    mapping(address => uint) public lastWithdrawTime;\r\n    mapping(address => uint) public balances;\r\n\r\n    function deposit() public payable {\r\n        balances[msg.sender] += msg.value;\r\n    }\r\n\r\n    function withdraw(uint _amount) public {\r\n        require(balances[msg.sender] >= _amount);\r\n        require(_amount <= WITHDRAWAL_LIMIT);\r\n        require(block.timestamp >= lastWithdrawTime[msg.sender] + 1 weeks);\r\n        (bool sent, ) = msg.sender.call{value: _amount}(\"\");\r\n        require(sent, \"Failed to send Ether\");\r\n\r\n        balances[msg.sender] -= _amount;\r\n        lastWithdrawTime[msg.sender] = block.timestamp;\r\n    }\r\n\r\n    // Helper function to check the balance of this contract\r\n    function getBalance() public view returns (uint) {\r\n        return address(this).balance;\r\n    }\r\n}",
  "sourcePath": "C:\\Users\\admin\\Documents\\smart_contract_tasks\\re-entrancy\\contracts\\EtherStore.sol",
  "compiler": {
    "name": "solc",
    "version": "0.7.6+commit.7338295f.Emscripten.clang"
  },
  "schemaVersion": "3.4.2",
  "updatedAt": "2021-08-27T14:42:31.103Z",
  "devdoc": {
    "kind": "dev",
    "methods": {},
    "version": 1
  },
  "userdoc": {
    "kind": "user",
    "methods": {},
    "version": 1
  }
}